01REMESSA01COBRANÇA      000000000000000000012TY                           000SANTANDER      1005210000000000000000este e um exemplo de mensagem para todos                                                                                                                                                                                                    111111111111111111111111111111111 111110000000001
101000000000000001230321456803214568000000000000000000000000125555555566000000 01000000000000000000    00000040000000000001121220002000000003530000000N00000000000000000000000000000000000000000000000000000000000000000000255555555500152ZE PAGADOR DE BOLETO                    RUA DO CLIENTE QUE PAGA                             65000000SEM NOME CITY  FU                               000      00 000002
9100000000002000000000000000000000000000000000000000000000000000000000000000000000000000000000000000000000000000000000000000000000000000000000000000000000000000000000000000000000000000000000000000000000000000000000000000000000000000000000000000000000000000000000000000000000000000000000000000000000000000000000000000000000000000000000000000000000000000000000000000000000000000000000000000000000000003