01REMESSA01      COBRANÇA00000000000000000001                           2TY033SANTANDER      1005210000000000000000       este e um exemplo de mensagem para todos                                                                                                                                                                                             111111111111111111111111111111111 111110111000001
10112312321331000000110321545103215454000000000000000000000001210000000121221 01000000000000000000    000000000000000000000000000002000000000000000000N00000000000000000000000000000000000000000000000000000000000000000000232132132100018                                                                                            00000                                                   000      00 000002
9100000000002000000000000000000000000000000000000000000000000000000000000000000000000000000000000000000000000000000000000000000000000000000000000000000000000000000000000000000000000000000000000000000000000000000000000000000000000000000000000000000000000000000000000000000000000000000000000000000000000000000000000000000000000000000000000000000000000000000000000000000000000000000000000000000000000003